S0110000767573625F746573742E7372656334
S11300000C945B000C9493000C9478000C9478008E
S11300100C9478000C9478000C9478000C9478007C
S11300200C9478000C9478000C9478000C9478006C
S11300300C9478000C9478000C9478000C9478005C
S11300400C9478000C9478000C9478000C9478004C
S11300500C9478000C9478000C9478000C9478003C
S11300600C9478000C9478000902120001010080BD
S11300701909040000000000000012011001FF0033
S11300800008C016DC05000101020001160355003A
S1130090530042006500780061006D0070006C0040
S11300A065001003640061006C00690062006F0069
S11300B072000403090411241FBECFEFD8E0DEBF91
S11300C0CDBF11E0A0E0B1E0ECE3FAE002C005909E
S11300D00D92A636B107D9F721E0A6E6B1E001C03A
S11300E01D92A539B207E1F70E94C7040C941C05C0
S11300F00C940000A82FB92F80E090E041E050EA72
S1130100609530E009C02D9182279795879510F06E
S113011084279527305EC8F36F5FA8F30895EADF5C
S11301208D939D930895CF93CFB7CF93C3954B9B56
S1130130E9F74B9B09C04B9B07C04B9B05C04B9BEE
S113014003C04B9B01C0A1C0DF93C0917801DD27A0
S1130150C158DE4F4B9B02C0DF91EBCF2F930F931F
S11301601F9309B12FEF03FB20F94F933F9319B16C
S11301704FEF012703FB21F93BE031C04E7F012FF4
S113018019B1216028C0102F4D7F2260000009B1F1
S113019029C04B7F2460012F000019B12BC019B175
S11301A0477F28602AC04F7E09B120612CC04F7D53
S11301B019B120622FC04F7B09B1206432C042279D
S11301C009B149934FEF0000102713FB20F919B12F
S11301D01C70C9F1297F91F2012703FB21F909B1B0
S11301E0237F89F2315058F1102713FB22F919B1FA
S11301F0277E79F2012703FB23F92F7C81F209B1D1
S1130200102713FB24F92F7971F200C019B10127CB
S113021003FB25F92F7359F200C009B1102713FB12
S113022026F9223040F200C019B1012703FB27F957
S1130230243028F64F77206819B10000F9CF11E077
S11302401CBB002717C03B503195C31BD04011E0A5
S11302501CBB0881033CE9F00B34D9F020917601F2
S11302601981110F1213EDCF093641F10D3211F03E
S1130270013E39F700937D013F914F911F910F91FA
S11302802F91DF91CCB3C0FD51CFCF91CFBFCF9190
S1130290189520917D01222379F310917B0111237C
S11302A011F5343012F130937B01209377011091D2
S11302B078013BE0311B3093780117C000917B013A
S11302C001308CF40AE53091010134FD10C0009333
S11302D00101CBE6D1E00FC02795A8F45150A9F451
S11302E0220F0000F9CF4AE503C042ED01C0432FBD
S11302F0C4E1D0E032E01AB11C605B9A1AB90BB1C8
S113030020E41CE05F93012756E00BB9279520F405
S1130310515021F4220FF9CF012756E000003B5A37
S11303200BB9D0F2279528F4515029F4220F00007C
S1130330F9CF012756E027950BB920F4515021F449
S1130340220FF9CF012756E0299133230BB921F667
S1130350037F10917C01110FC651D0400BB911F0ED
S11303601093760111E01CBB08601AB1137F402F73
S1130370437F5F9100C000C00BB91AB94BB97CCF61
S1130380CF93DF9380917B0183500AF494C0209132
S11303907801909177019D3209F08BC0883009F083
S11303A088C0CCE0D0E0C21BD109C158DE4F83EC39
S11303B080936B018AE58093010110926601888124
S11303C0807621F0CE010E946F036AC08A81109268
S11303D074019981911106C01092750124E731E0EE
S11303E082E05AC0953031F480937C0124E731E0F7
S11303F080E052C09630E1F59B81913041F48AE768
S113040090E090937A018093790182E12DC092303B
S113041041F488E690E090937A018093790182E137
S113042023C09330F1F4811108C082EB90E09093E3
S11304307A018093790184E017C0813041F482EA23
S113044090E090937A018093790180E10DC082302D
S113045051F48CE890E090937A018093790186E1DD
S113046003C080E001C080E090E49093660118C06E
S1130470983079F0993031F480937E0124E731E0AB
S113048080E00AC081E09A3009F080E024E731E09E
S113049003C02EE731E081E030937A0120937901A3
S11304A09F81911104C09E81981708F4892F80932D
S11304B0000110927B018091010184FF4AC0809168
S11304C000018F3F09F445C0C82F893008F0C8E007
S11304D08C1B80930001EBE6F1E0908188E889278A
S11304E08083CC2309F443C08091790190917A01EF
S11304F02091660126FF0FC0ACE6B1E0FC012C2F71
S113050034913D9331962150D9F701962FEF2C0F5A
S1130510820F911D0DC0ACE6B1E0FC012C2F31918E
S11305203D932150E1F701962FEF2C0F820F911D7F
S113053090937A01809379016C2F8CE691E00E946C
S11305408F00CC5FCC3018F48FEF80930001C09300
S1130550010189B18C7091F483E199B19C7071F4BB
S11305608150D9F710927C011092760107C06C2F4C
S11305708CE691E00E948F00CC5FE6CFDF91CF91B3
S11305800895E9E6F0E0808182608083E89A089526
S1130590382F20E08AE090E0AC01449FC001459FE1
S11305A0900D900D11242F5F3217B0F70895CF935B
S11305B0DF9300D000D01F92CDB7DEB78C01FE01CF
S11305C0319685E0DF011D928A95E9F77E01B5E059
S11305D0EB0EF11C6894DD24D2F88D2D0E94C80224
S11305E09C0108171907A0F0C801B9010E94F4047E
S11305F0F801E81BF109CF01B9010E94F404D70105
S11306006C93629FA001639F500D1124041B150B72
S1130610DA94B1E0EB1AF108D110DFCF098380E05E
S113062024E0E82FF0E0EE5FFE4F922F981BA1E04C
S1130630B0E0AC0FBD1FA90FB11D9C91905D9083DC
S11306408F5FEFCF482F8436E0F0282F30E089E227
S1130650489F812D112482958F70642F54E6859FC5
S113066060191124862FB901681B7109CB0164E656
S113067070E00E940805E62F74E6679F4019112474
S113068001C0E0E04A3000F1242F30E08DEC489FB7
S1130690812D1124869586958695880F982F990F1C
S11306A0990F890F942F981BB901691B7109CB010C
S11306B06AE070E00E940805862F660F962F990F56
S11306C0990F690F461B01C080E0E05DE0930801CB
S11306D0805D80930901405D40930A010895FC0107
S11306E08181863009F44DC068F4833049F128F4DF
S11306F08823D1F08130E9F07DC0843061F1853008
S1130700A9F178C0853609F458C038F4823309F465
S113071043C0843609F448C06DC0883C09F456C00F
S1130720893C09F45BC066C01092630110926A01AF
S1130730089581E08093630180936A0180E00895C5
S113074083E08093630181E090E09093680180935B
S1130750670180E0089584E08093630181E090E084
S1130760909368018093670180E0089583E080930B
S1130770630180E390E0909368018093670180E0D7
S1130780089584E08093630180E390E0909368018E
S11307908093670180E00895868190E0982F8827F0
S11307A02781822B0E94D70280916401863920F52B
S11307B08F5F8093640180E00895809164018230AA
S11307C0E8F081508093640180E008958BE091E02B
S11307D090937A018093790186E50895809164016C
S11307E00E94220388E091E090937A01809379013A
S11307F083E0089580E0089580E0089580E00895FE
S11308006BB14091690150E04F5F5F4F4370507886
S11308104C5F5F4F81E090E09C0102C0220F331FC8
S11308204A95E2F7262B2BB92BB130916101337035
S11308303C5F02C0880F991F3A95E2F7822B8BB96F
S113084008958BB18F708BB9109268011092670173
S113085010926A0108954BB12091690123702C5FB5
S113086081E090E0BC0102C0660F771F2A95E2F791
S11308709B01209524232BB92BB130916101337056
S11308803C5F02C0880F991F3A95E2F7822B8BB91F
S1130890089580916301909162019817C1F080934B
S11308A062012091610190916901322F391B932FCC
S11308B0131634F4843021F421502093610107C0CD
S11308C099232CF4833019F42F5F20936101209134
S11308D08400309185006091640170E08BE197EBB6
S11308E00E94F4046217730708F050C01092850048
S11308F01092840080916301813049F028F08330A4
S113090081F0843049F108950E9421040895809172
S11309106A0181113BC00E94000481E080936A0156
S113092008958091670190916801009789F001977B
S11309309093680180936701809161019FEF980F04
S1130940909369018F5F809361010E942B04089545
S113095081E080936301089580916701909168011B
S1130960009789F0019790936801809367018091C3
S1130970610191E0980F9093690181508093610126
S11309800E942B04089581E0809363010895209AC6
S1130990289AE1E8F0E0808184608083549A559A33
S11309A0569A579A2EE088E190E00FB6F894A895ED
S11309B0809360000FBE209360000E94C102539A8E
S11309C08AEFA895EFE6F7E13197F1F700C0000050
S11309D08150B9F7539878940E940004A8950E9416
S11309E0C0010E944904FACFAA1BBB1B51E107C0F6
S11309F0AA1FBB1FA617B70710F0A61BB70B881FAB
S1130A00991F5A95A9F780959095BC01CD01089539
S1130A1097FB072E16F4009407D077FD09D00E94A7
S1130A20F40407FC05D03EF4909581959F4F0895FA
S10F0A30709561957F4F0895F894FFCFF6
S1130A3CFF5A3635353335003235354D65737361B0
S1130A4C67652066726F6D2074686520555342206B
S1130A5C6465766963652C206D6178696D756D20AC
S1130A6C73697A652069732032353520627974652F
S1130A7C732E20556E646566696E656420617272AE
S1130A8C6179206F66206368617261637465727347
S1090A9C00020101140038
S9030000FC
