:100000000C945B000C9493000C9478000C94780092
:100010000C9478000C9478000C9478000C94780080
:100020000C9478000C9478000C9478000C94780070
:100030000C9478000C9478000C9478000C94780060
:100040000C9478000C9478000C9478000C94780050
:100050000C9478000C9478000C9478000C94780040
:100060000C9478000C9478000902120001010080C1
:100070001909040000000000000012011001FF0037
:100080000008C016DC05000101020001160355003E
:10009000530042006500780061006D0070006C0044
:1000A00065001003640061006C00690062006F006D
:1000B00072000403090411241FBECFEFD8E0DEBF95
:1000C000CDBF11E0A0E0B1E0EAE6F9E002C00590A2
:1000D0000D92A036B107D9F721E0A0E6B1E001C04A
:1000E0001D92AF38B207E1F70E945E040C94B3048E
:1000F0000C940000A82FB92F80E090E041E050EA76
:10010000609530E009C02D9182279795879510F072
:1001100084279527305EC8F36F5FA8F30895EADF60
:100120008D939D930895CF93CFB7CF93C3954B9B5A
:10013000E9F74B9B09C04B9B07C04B9B05C04B9BF2
:1001400003C04B9B01C0A1C0DF93C0917201DD27AA
:10015000C758DE4F4B9B02C0DF91EBCF2F930F931D
:100160001F9309B12FEF03FB20F94F933F9319B170
:100170004FEF012703FB21F93BE031C04E7F012FF8
:1001800019B1216028C0102F4D7F2260000009B1F5
:1001900029C04B7F2460012F000019B12BC019B179
:1001A000477F28602AC04F7E09B120612CC04F7D57
:1001B00019B120622FC04F7B09B1206432C04227A1
:1001C00009B149934FEF0000102713FB20F919B133
:1001D0001C70C9F1297F91F2012703FB21F909B1B4
:1001E000237F89F2315058F1102713FB22F919B1FE
:1001F000277E79F2012703FB23F92F7C81F209B1D5
:10020000102713FB24F92F7971F200C019B10127CF
:1002100003FB25F92F7359F200C009B1102713FB16
:1002200026F9223040F200C019B1012703FB27F95B
:10023000243028F64F77206819B10000F9CF11E07B
:100240001CBB002717C03B503195C31BD04011E0A9
:100250001CBB0881033CE9F00B34D9F020917001FC
:100260001981110F1213EDCF093641F10D3211F042
:10027000013E39F7009377013F914F911F910F9104
:100280002F91DF91CCB3C0FD51CFCF91CFBFCF9194
:10029000189520917701222379F31091750111238C
:1002A00011F5343012F130937501209371011091E2
:1002B00072013BE0311B3093720117C00091750150
:1002C00001308CF40AE53091010134FD10C0009337
:1002D0000101C5E6D1E00FC02795A8F45150A9F45B
:1002E000220F0000F9CF4AE503C042ED01C0432FC1
:1002F000C4E1D0E032E01AB11C605B9A1AB90BB1CC
:1003000020E41CE05F93012756E00BB9279520F409
:10031000515021F4220FF9CF012756E000003B5A3B
:100320000BB9D0F2279528F4515029F4220F000080
:10033000F9CF012756E027950BB920F4515021F44D
:10034000220FF9CF012756E0299133230BB921F66B
:10035000037F10917601110FC651D0400BB911F0F7
:100360001093700111E01CBB08601AB1137F402F7D
:10037000437F5F9100C000C00BB91AB94BB97CCF65
:10038000CF93DF938091750183500AF494C020913C
:100390007201909171019D3209F08BC0883009F093
:1003A00088C0CCE0D0E0C21BD109C758DE4F83EC37
:1003B000809365018AE58093010110926001888134
:1003C000807621F0CE010E9415036AC08A811092C6
:1003D0006E019981911106C010926F012EE631E0F5
:1003E00082E05AC0953031F4809376012EE631E0F8
:1003F00080E052C09630E1F59B81913041F48AE76C
:1004000090E0909374018093730182E12DC092304B
:1004100041F488E690E0909374018093730182E147
:1004200023C09330F1F4811108C082EB90E09093E7
:1004300074018093730184E017C0813041F482EA33
:1004400090E0909374018093730180E10DC082303D
:1004500051F48CE890E0909374018093730186E1ED
:1004600003C080E001C080E090E49093600118C078
:10047000983079F0993031F4809378012EE631E0AC
:1004800080E00AC081E09A3009F080E02EE631E099
:1004900003C028E731E081E03093740120937301B9
:1004A0009F81911104C09E81981708F4892F809331
:1004B0000001109275018091010184FF4AC0809172
:1004C00000018F3F09F445C0C82F893008F0C8E00B
:1004D0008C1B80930001E5E6F1E0908188E8892794
:1004E0008083CC2309F443C08091730190917401FF
:1004F0002091600126FF0FC0A6E6B1E0FC012C2F81
:1005000034913D9331962150D9F701962FEF2C0F5E
:10051000820F911D0DC0A6E6B1E0FC012C2F319198
:100520003D932150E1F701962FEF2C0F820F911D83
:1005300090937401809373016C2F86E691E00E9482
:100540008F00CC5FCC3018F48FEF80930001C09304
:10055000010189B18C7091F483E199B19C7071F4BF
:100560008150D9F7109276011092700107C06C2F5C
:1005700086E691E00E948F00CC5FE6CFDF91CF91BD
:100580000895E9E6F0E0808182608083E89A08952A
:10059000482F8436E0F0282F30E089E2489F812DF3
:1005A000112482958F70642F54E6859F6019112461
:1005B000862FB901681B7109CB0164E670E00E94C7
:1005C0009F04E62F74E6679F4019112401C0E0E004
:1005D0004A3000F1242F30E08DEC489F812D11240A
:1005E000869586958695880F982F990F990F890F74
:1005F000942F981BB901691B7109CB016AE070E067
:100600000E949F04862F660F962F990F990F690FEE
:10061000461B01C080E0E05DE0930201805D8093B5
:100620000301405D409304010895FC018181853000
:10063000E1F140F48130E1F0B0F0833001F1843039
:1006400049F16FC0853609F44FC030F48630C1F1EE
:10065000843609F440C065C0883C09F44EC0893C2A
:1006600009F453C05EC010925D01109264010895B8
:1006700081E080935D018093640180E0089583E0D0
:1006800080935D0181E090E090936201809361012D
:1006900080E0089584E080935D0181E090E0909394
:1006A00062018093610180E0089583E080935D01A1
:1006B00080E390E0909362018093610180E008956F
:1006C00084E080935D0180E390E0909362018093E9
:1006D000610180E0089580915E01863920F58F5F89
:1006E00080935E0180E0089580915E018230E8F0A1
:1006F000815080935E0180E0089585E091E09093C1
:1007000074018093730186E5089580915E010E94D3
:10071000C80282E091E0909374018093730183E0BA
:10072000089580E0089580E0089580E008956BB119
:100730004091630150E04F5F5F4F437050784C5FD2
:100740005F4F81E090E09C0102C0220F331F4A9569
:10075000E2F7262B2BB92BB130915B0133703C5F54
:1007600002C0880F991F3A95E2F7822B8BB9089542
:100770008BB18F708BB9109262011092610110924F
:10078000640108954BB12091630123702C5F81E0D7
:1007900090E0BC0102C0660F771F2A95E2F79B012B
:1007A000209524232BB92BB130915B0133703C5F32
:1007B00002C0880F991F3A95E2F7822B8BB90895F2
:1007C00080915D0190915C019817C1F080935C016C
:1007D00020915B0190916301322F391B932F1316E7
:1007E00034F4843021F4215020935B0107C0992315
:1007F0002CF4833019F42F5F20935B012091840047
:100800003091850060915E0170E08BE197EB0E9472
:100810008B046217730708F050C010928500109285
:10082000840080915D01813049F028F0833081F0AF
:10083000843049F108950E94B803089580916401BD
:1008400081113BC00E94970381E080936401089569
:100850008091610190916201009789F001979093D6
:1008600062018093610180915B019FEF980F9093EB
:1008700063018F5F80935B010E94C203089581E052
:1008800080935D01089580916101909162010097CC
:1008900089F00197909362018093610180915B01DF
:1008A00091E0980F90936301815080935B010E94C7
:1008B000C203089581E080935D010895209A289AEB
:1008C000E1E8F0E0808184608083549A559A569ADA
:1008D000579A2EE088E190E00FB6F894A89580939F
:1008E00060000FBE209360000E94C102539A8AEFFD
:1008F000A895EFE6F7E13197F1F700C000008150CD
:10090000B9F7539878940E949703A8950E94C00164
:100910000E94E003FACFAA1BBB1B51E107C0AA1F2C
:10092000BB1FA617B70710F0A61BB70B881F991F90
:100930005A95A9F780959095BC01CD01089597FB34
:10094000072E16F4009407D077FD09D00E948B047F
:1009500007FC05D03EF4909581959F4F08957095C2
:0A09600061957F4F0895F894FFCFD2
:10096A00FF5A3130304D6573736167652066726F67
:10097A006D20746865205553422064657669636505
:10098A002C206D6178696D756D2073697A652069AF
:10099A0073203235352062797465732E20556E6462
:1009AA006566696E6564206172726179206F66207E
:1009BA0063686172616374657273000201011400F5
:00000001FF
